:1018000057C08BC070C06FC06EC06DC06CC06BC065
:101810006AC069C068C067C066C065C064C063C094
:1018200062C061C060C05FC05EC05DC05CC05BC0C4
:101830005AC059C00403090412036F006200640017
:10184000650076002E006100740010034800490016
:10185000440042006F006F0074001201100100008C
:101860000008C016DF050001010200010902220084
:101870000101008032090400000103000000092179
:1018800001010001222100070581030800C80600AC
:10189000FF0901A101150026FF00750885019506C5
:1018A0000900B20201850295830900B20201C0005D
:1018B00011241FBECFEFD4E0DEBFCDBF11E0A0E00A
:1018C000B1E0E0EDFEE102C005900D92AA30B10753
:1018D000D9F711E0AAE0B1E001C01D92AB33B10726
:1018E000E1F75CD1F3C28CCFA82FB92F80E090E054
:1018F00041E050EA609530E009C02D91822797952C
:10190000879510F084279527305EC8F36F5FA8F3A2
:101910000895EADF8D939D930895CF93CFB7CF932A
:10192000C395489BE9F7489B09C0489B07C0489B63
:1019300005C0489B03C0489B01C0A3C0DF93C09172
:101940001E01DD27CB5DDE4F489B02C0DF91EBCF50
:101950002F930F931F9309B12FEF00FB20F94F93A3
:101960003F9319B14FEF012700FB21F93BE031C054
:101970004E7F012F19B1216028C0102F4D7F2260AA
:10198000000009B129C04B7F2460012F000019B16C
:101990002BC019B1477F28602AC04F7E09B1206152
:1019A0002CC04F7D19B120622FC04F7B09B120643C
:1019B00032C0422709B149934FEF0000102710FBB6
:1019C00020F919B11570C9F1297F91F2012700FBA7
:1019D00021F909B1237F89F2315058F1102710FB0A
:1019E00022F919B1277E79F2012700FB23F92F7C18
:1019F00081F209B1102710FB24F92F7971F200C090
:101A000019B1012700FB25F92F7359F200C009B164
:101A1000102710FB26F9223040F200C019B101272F
:101A200000FB27F9243028F64F77206819B1000011
:101A3000F9CF11E01CBB002719C03B503195C31BE7
:101A4000D04011E01CBB0881033CF9F00B34E9F0F5
:101A500020911C011981110F1213EDCF4A81441FEF
:101A6000093641F10D3211F0013E29F700932301AF
:101A70003F914F911F910F912F91DF91CCB3C0FDFA
:101A80004FCFCF91CFBFCF91189520912301222323
:101A900079F310912101112321F5343022F1309393
:101AA000210120931D0110911E013BE0311B309359
:101AB0001E0119C00091210101309CF40AE54F700C
:101AC00081F43091000134FD10C000930001C1E1A8
:101AD000D1E00FC02795A8F45150A9F4220F0000BF
:101AE000F9CF4AE503C042ED01C0432FC4E1D0E085
:101AF00032E01AB11560589A1AB90BB120E415E01A
:101B00005F93012756E00BB9279520F4515021F43B
:101B1000220FF9CF012756E000003B5A0BB9D0F253
:101B2000279528F4515029F4220F0000F9CF0127FE
:101B300056E027950BB920F4515021F4220FF9CF2C
:101B4000012756E0299133230BB921F60A7F109122
:101B50002201110FC651D0400BB911F010931C0196
:101B600011E01CBB01601AB11A7F402F4A7F5F91C0
:101B700000C000C00BB91AB94BB97ACFF89481E113
:101B800080935700E8951DBA1092690081E085BFE7
:101B900015BEE0910F01F09110010995599A04B614
:101BA00001FE91C114BE88E28A95F1F749998BC173
:101BB00081E085BF82E085BF80916900836080936A
:101BC0006900E89A509A20E0A89588EB9BE001977D
:101BD000F1F72150C9F750987894FF2400E0A895B8
:101BE00090912101392F335037FD19C180911E0189
:101BF000ACE0B0E0A81BB109AB5DBE4F80911D0108
:101C00008D3209F0BDC0383009F007C183EC8093F4
:101C100011018AE58093000110920A012C91822F14
:101C2000807611969C9111978823E1F0993079F490
:101C300012968C911297823031F410920D0127FD8B
:101C40008CC09FEF8CC081E080930E013DC191302C
:101C500009F03AC182E091E09093200180931F0146
:101C600027E081C012968C91129710921A01992345
:101C700031F410921B018AE191E022E069C09530B5
:101C800019F48093220161C0963009F04EC013967A
:101C90008C911397813019F48AE598E11DC0823048
:101CA00041F48CE698E19093200180931F0122E299
:101CB00038C0833009F512968C911297882341F42D
:101CC00084E398E19093200180931F0124E029C0D0
:101CD000813041F488E398E19093200180931F01C3
:101CE00022E11FC08230E1F48AE498E19093200160
:101CF00080931F0120E115C0813241F48EE798E105
:101D00009093200180931F0129E00BC0823241F49F
:101D10008EE898E19093200180931F0121E201C099
:101D200020E080E480930A011EC0983019F484E218
:101D300091E009C0993019F48093240106C09A30CB
:101D400021F48AE191E021E003C08AE191E020E002
:101D50009093200180931F0106C016969C9180E805
:101D600080930A010AC017968C911797882321F453
:101D700016969C91921708F0922F909301014DC0F6
:101D800080910A0187FF49C0C0910B01D0910C01DD
:101D900080910D01882349F41196CC9111971296E8
:101DA000DC9112971496392F3750632F680F609388
:101DB0000D01AE014F7351F4F89483E0FE0180935E
:101DC0005700E895789407B600FCFDCFF894AE0173
:101DD0008D919C91119721E0FE010C0120935700F9
:101DE000E895112478942296FE01EF7351F4F8944B
:101DF00085E0FA0180935700E895789407B600FCD7
:101E0000FDCF325011F01296D4CFD0930C01C09375
:101E10000B0167FF02C01092010110922101809115
:101E2000000184FF3CC0809101018F3FC1F1182F58
:101E3000893008F018E0811B809301018091110125
:101E400098E88927809311011123E1F0E0911F01A7
:101E5000F091200180910A0186FF09C0912FA2E133
:101E6000B1E084918D9331969150D9F707C0912FAD
:101E7000A2E1B1E081918D939150E1F7F0932001BF
:101E8000E0931F0182E191E0612F43DD612F6C5FE0
:101E90006C3019F08FEF809301016093000194E1A1
:101EA00089B1857031F49150D9F7109222011092C6
:101EB0001C0180910E01882321F0FA9411F4015045
:101EC00011F0499B8CCE5ADE20E04DCFF894FFCF25
:0A1ED0005AFF01400000200000004E
:0400000300001800E1
:00000001FF
